:020000040000FA
:1000000080316D28053008007E1480312E00161CCA
:100010000A280B2813280C1C0E280F2813289031AF
:100020007F2080316B28161E162817281F280C1ECB
:100030001A281B281F289131E82180316B280B1FBB
:10004000222823286B28991C2628272832288F1C31
:100050002A282B28322821005E088A005D080A0021
:1000600080316B28191C3528362841280F1C392867
:100070003A28412821005C088A005B080A00803188
:100080006B28191E4428452850280F1E4828492847
:100090005028210064088A0063080A0080316B2818
:1000A000991E532854285F288F1E572858285F28E8
:1000B000210062088A0061080A0080316B281A1C3E
:1000C000622863286B28101C662867286B289231E9
:1000D000312280316B287E10090080316F288E30EC
:1000E00084009130850062308600003087000E3039
:1000F0009031A320803121008731FE278031EE002E
:100100008731FF278031EF00F001F101F201F301A7
:10011000F401F501F6014E30840000308500143002
:1001200090319D208031A0308400003085003F3028
:1001300090319D20803120308400013085001030C6
:1001400090319D2080317E1020008831642820006D
:10015000BD01BE01EB2D340335040319B028B128CD
:10016000C228FD309331D3238031C0309331D32363
:100170008031FF309331D3238031FE309331D3234C
:1001800080311E2EFD309331D3238031C030933126
:10019000D3238031200058089331D32380312000AD
:1001A00056089331D323803172089331D3238031A1
:1001B000FE309331D32380311E2E043034063504B3
:1001C000031DE328E428F828183021003E02031814
:1001D000EA28EB28F8283C303F020318F028F128E1
:1001E000F8283C3040020318F628F728F828092997
:1001F000FD309331D3238031C1309331D32380310B
:10020000FF309331D3238031FE309331D3238031BB
:100210001E2E3E082000B600B7013608D800370869
:10022000D9000730B0007030B1005808B600360869
:10023000B20093312B23803121003F082000B6000B
:10024000B7013608D6003708D7000830B000703044
:10025000B1005608B6003608B20093312B23803126
:1002600009302000B0007030B10096315A2680313C
:100270002000B6003608B20093312B2380312100D4
:1002800040082000B600B7013608F2003708F30036
:10029000FD309331D3238031C1309331D32380316A
:1002A00000309331D3238031FE309331D32380311A
:1002B0001E2E3403350403195E295F297029FD3091
:1002C0009331D3238031C2309331D3238031FF3037
:1002D0009331D3238031FE309331D32380311E2ECE
:1002E000FD309331D3238031C2309331D323803119
:1002F000210057089331D3238031210059089331CD
:10030000D3238031FE309331D32380311E2E34032A
:10031000350403198C298D299E29FD309331D3236F
:100320008031C3309331D3238031FF309331D323D5
:100330008031FE309331D32380311E2EFD30933136
:10034000D3238031C3309331D323803120006C0814
:100350009331D323803120006A089331D323803135
:10036000FE309331D32380311E2E02303406350403
:10037000031DBB29BC29C429643021003E02031897
:10038000C229C329C429D529FD309331D323803113
:10039000C4309331D3238031FF309331D323803164
:1003A000FE309331D32380311E2E3E082000B6004C
:1003B000B7013608EC003708ED000230B0007030AD
:1003C000B1006C08B6003608B20093312B2380319F
:1003D00009302000B0007030B10096315A268031CB
:1003E0002000B6003608B20093312B238031FD3057
:1003F0009331D3238031C4309331D3238031003003
:100400009331D3238031FE309331D32380311E2E9C
:10041000023034063504031D0E2A0F2A172A3D30F8
:1004200021003E020318152A162A172A282AFD3011
:100430009331D3238031C5309331D3238031FF30C2
:100440009331D3238031FE309331D32380311E2E5C
:100450003E082000B600B7013608EA003708EB0076
:100460000330B0007030B1006A08B6003608B20040
:1004700093312B23803109302000B0007030B1005F
:1004800096315A2680312000B6003608B2009331EA
:100490002B238031FD309331D3238031C53093310C
:1004A000D323803100309331D3238031FE30933118
:1004B000D32380311E2E340335040319602A612AA8
:1004C000722AFD309331D3238031C6309331D32348
:1004D0008031FF309331D3238031FE309331D323E9
:1004E00080311E2EFD309331D3238031C6309331BD
:1004F000D3238031200068089331D323803120003A
:1005000066089331D323803120005A089331D323D6
:100510008031FE309331D32380311E2E03303406D8
:100520003504031D942A952AA32A333021003E0264
:1005300003189B2A9C2AA32A04303F020318A12AED
:10054000A22AA32AB42AFD309331D3238031C730A5
:100550009331D3238031FF309331D3238031FE3068
:100560009331D32380311E2E3E082000B600B70100
:100570003608E8003708E90021003F082000B600EF
:10058000B7013608E6003708E700FD309331D32382
:100590008031C7309331D323803100309331D3235E
:1005A0008031FE309331D323803104302000B000FD
:1005B0007030B1006808B6003608B20093312B23C2
:1005C000803105302000B0007030B1006608B60000
:1005D0003608B20093312B23803109302000B0005F
:1005E0007030B10096315A2680312000B6003608AE
:1005F000B20093312B2380311E2E02303406350495
:10060000031D032B042B0C2B023021003E02031888
:100610000A2B0B2B0C2B1D2BFD309331D323803158
:10062000C8309331D3238031FF309331D3238031CD
:10063000FE309331D32380311E2E3E082000B600B9
:10064000B7013608DA003708DB005A035B04031DE4
:100650002A2B2B2B302B0230D0000030D100382B2E
:100660005A085B04031D352B362B382BD001D101E2
:100670000630B0007030B1005A08B6003608B2003B
:1006800093312B23803109302000B0007030B1004D
:1006900096315A2680312000B6003608B2009331D8
:1006A0002B238031FD309331D3238031C8309331F7
:1006B000D323803100309331D3238031FE30933106
:1006C000D32380311E2E340335040319682B692B84
:1006D0007A2BFD309331D3238031C9309331D3232A
:1006E0008031FF309331D3238031FE309331D323D7
:1006F00080311E2EFD309331D3238031C9309331A8
:10070000D323803120006E089331D3238031200021
:1007100054089331D3238031200062089331D323CE
:100720008031200064089331D3238031FE3093312F
:10073000D32380311E2E023034063504031DA12B35
:10074000A22BB12B6F08803AB60080303602031D11
:10075000AD2B21003E0820006E020318B02BB12BF8
:10076000C22BFD309331D3238031CA309331D32350
:100770008031FF309331D3238031FE309331D32346
:1007800080311E2EFD309331D3238031CA30933116
:10079000D32380312000520853040319D02BD12BCE
:1007A000382CBB01BC01292C20006308A900620879
:1007B000A800973173278031200028308600003050
:1007C00087003F308400003085000530B6001600F9
:1007D0001A00B60BE72B3F089331D323803120005A
:1007E00040089331D3238031200041089331D32333
:1007F0008031200042089331D32380312000430808
:100800009331D3238031FF302000D207FF30D33D16
:100810000130E2070030E33D6308803AB6006F081C
:10082000803A3602031D162C6E086202031C192C36
:100830001A2C1D2C2000E201E30120005208530471
:10084000031D232C242C252C382C0130BB07003011
:10085000BC3D3C08803AB60080303602031D342C83
:1008600021003E0820003B02031C372C382CD42BDF
:10087000FE309331D32380310E302000B000703031
:10088000B1005208B6003608B20093312B238031F4
:100890000D302000B0007030B1006208B60036089C
:1008A000B20093312B2380311E2E340335040319FB
:1008B0005A2C5B2C6C2CFD309331D3238031D630F5
:1008C0009331D3238031FF309331D3238031FE30F5
:1008D0009331D32380311E2EFD309331D3238031C9
:1008E000D6309331D32380312000520853040319AA
:1008F0007A2C7B2CE12CBB01BC01D32C200063089B
:10090000A9006208A80097317327803120002830A1
:100910008600003087003F308400003085000530BD
:10092000B60016001A00B60B912C3F089331D32362
:100930008031200040089331D323803120004108CA
:100940009331D3238031200042089331D323803167
:10095000200043089331D3238031FF302000D20799
:10096000FF30D33D0130E2070030E33D6308803AB9
:10097000B6006F08803A3602031DC02C6E08620272
:10098000031CC32CC42CC72C2000E201E30120006F
:1009900052085304031DCD2CCE2CCF2CE12C01305A
:1009A000BB070030BC3D3C08803AB6006F08803A77
:1009B0003602031DDD2C6E083B02031CE02CE12CEB
:1009C0007E2CFE309331D32380313C2C033034060F
:1009D0003504031DEC2CED2C122D6F08803AB60067
:1009E00080303602031DF82C21003E0820006E02E4
:1009F000031CFB2CFC2C122D20006E08FF3EB600C1
:100A0000FF306F3DB7003708803AB80080303802B9
:100A1000031D0E2D21003F08200036020318112D62
:100A2000122D232DFD309331D3238031CB309331E0
:100A3000D3238031FF309331D3238031FE30933183
:100A4000D32380311E2EFD309331D3238031CB3020
:100A50009331D3238031200054086402B900550833
:100A6000653BBA00392D6E083907B9006F083A3D69
:100A7000BA00BA1B3C2D3D2D332D21003F0820002C
:100A80003907BD003A0803183A0ABE004E2D20006F
:100A90006E083D02BD006F083E3BBE003E08803A36
:100AA000B6006F08803A3602031D582D6E083D02CD
:100AB00003185B2D5C2D472D2000540855040319A5
:100AC000622D632DE62DBB01BC01D72D20003E0811
:100AD000A9003D08A80097317327803120002830F5
:100AE0008600003087003F308400003085000530EC
:100AF000B60016001A00B60B792D3D089331D323AA
:100B00008031200040089331D323803120004108F8
:100B10009331D3238031200042089331D323803195
:100B2000200043089331D3238031200063083E0620
:100B3000031D9C2D62083D06031D9F2DA02DB62D83
:100B40006F08A1006E08A0006208013EA2000030FC
:100B5000633DA30095315725803120002108E30033
:100B60002008E200FF30D207FF30D33D6F08A1001C
:100B70006E08A0003D08013EA20000303E3DA300EB
:100B800095315725803120002108BE002008BD0086
:100B900065083E06031DCE2D64083D06031DD12DBC
:100BA000D22DD32DE62D0130BB070030BC3D3C08D3
:100BB000803AB60080303602031DE22D21003E0847
:100BC00020003B02031CE52DE62D662DFE309331FF
:100BD000D32380313C2C21003D082000B600B70112
:100BE0003708003A0319F52D1E2E3608C03A0319AE
:100BF000AB28013A0319DD28033A03195929013AB0
:100C000003198729073A0319B529013A0319082A54
:100C1000033A03195B2A013A03198E2A0F3A031982
:100C2000FD2A013A0319632B033A03199B2B013A5E
:100C30000319E62C1E3A0319552C1E2E0800AC2F62
:100C40000230CE000030CF000A302000A00000307B
:100C5000A1005908A3005808A20088310420863159
:100C600020002108AA002008A900923177228631AD
:100C7000D82F0A30D8070030D93D5908803AAB0048
:100C800080302B02031D462E18305802031C492EBB
:100C90004A2E242E0A302000A0000030A10059085E
:100CA000A3005808A200953157258631200021085D
:100CB000D9002008D800242E0130D8070030D93DB3
:100CC0000A30A0000030A1005908A3005808A20073
:100CD000953157258631200020082104031D712EEF
:100CE000722E762EF630D807FF30D93D5908803A5B
:100CF000AB0080302B02031D7F2E18305802031CDE
:100D0000822E832E882E14302000D8000030D90087
:100D10000A302000A0000030A1005908A3005808A4
:100D2000A20095315725863120002108AA0020080D
:100D3000A900923177228631D82F0A30D6070030A9
:100D4000D73D5708803AAB0080302B02031DAA2EF6
:100D50003C305602031CAD2EAE2EBF2E0A302000B2
:100D6000A0000030A1005708A3005608A20095314A
:100D70005725863120002108D7002008D6000A30E8
:100D80002000A0000030A1005708A3005608A200D0
:100D900088310420863120002108AA002008A900FB
:100DA000923177228631D82F0130D6070030D73DD7
:100DB0000A30A0000030A1005708A3005608A20086
:100DC000953157258631200020082104031DE92E86
:100DD000EA2EEE2EF630D607FF30D73D0A30A000BF
:100DE0000030A1005708A3005608A20095315725EE
:100DF000863120002108AA002008A900923177221C
:100E00008631D82F0730CE000030CF0090319720A8
:100E10008631D82F90319720863120005008510418
:100E2000031D132F142F1E2F0230D0000030D100CD
:100E30000130DA000030DB001616D82F02305006E1
:100E40005104031D242F252FD82FD001D101DA0101
:100E5000DB011612D82F0930CE000030CF000A3047
:100E60002000A0000030A1006908A3006808A200CB
:100E700088310420863120002108AA002008A9001A
:100E8000923177228631D82F0A30E8070030E93DC9
:100E90006908803AAB0080302B02031D512F33309C
:100EA0006802031C542F552F2F2F0A302000A0005A
:100EB0000030A1006908A3006808A20095315725F9
:100EC000863120002108E9002008E8002F2F01309A
:100ED000E8070030E93D0A30A0000030A1006908B1
:100EE000A3006808A200953157258631200020080C
:100EF0002104031D7C2F7D2F812FF630E807FF3062
:100F0000E93D0A30A0000030A1006908A30068088C
:100F1000A20095315725863120002108AA0020081B
:100F2000A900923177228631D82F0C30CE000030C4
:100F3000CF006708AA006608A9009231772286319F
:100F4000D82F0130E6070030E73D03306605E600A4
:100F500000306705E700992F20004F08003A031979
:100F6000B22FD82F4E08013A0319202E033A031945
:100F7000392E013A03195C2E073A03199D2E013AC6
:100F80000319D42E033A0319022F013A03190A2F29
:100F90000F3A03192B2F013A0319442F033A03196F
:100FA000672F013A0319952F073A0319A12FD82F5C
:100FB0000800083021006D020318DF2FE02FFB2FFF
:100FC00020006008283E86000130870001082200CA
:100FD0009A000130F70077082000E007083060022F
:100FE000031CF32FF42FF52FE0010130F7007708F1
:100FF0002100ED07FD2F2E0019120800FF34FF34E9
:1010000090313C20883108002000A601A11F09284A
:101010000A281128A009A109A00A0319A10AA601FA
:10102000A60AA31F142815281E28A209A309A20A8C
:101030000319A30A0130A4002408A606A701A801E9
:10104000200821040319252826285528A501A50ACA
:1010500032280130A035A10D890B2A280130A400C7
:101060002408A507A11F3528362829280130A735CF
:10107000A80D890B372821082302031D41282008C9
:101080002202031C442845284A282008A2022108DD
:10109000A33B27140130A136A00C890B4B2801304B
:1010A000A502031D54285528362826080319592857
:1010B0005A285F28A709A809A70A0319A80A280817
:1010C000A1002708A000080093310923883190313E
:1010D0003F2088318B170B178E3161268831913173
:1010E0004C2188312000931513163E00CF154F1662
:1010F0009131C9218831903197208831003020000A
:10110000A0001630A10091313A21883185302000AD
:10111000A0001030A1009131282188318B302000AF
:10112000A0001030A1009131312188312100470306
:101130004804031D9C289D28A228C701C8018C31A2
:10114000D9248831210049034A04031DA828A9286D
:10115000AE28C901CA018B317223883121004B03AB
:101160004C04031DB428B528BA28CB01CC01863124
:101170001F26883121004D034E04031DC028C128BD
:10118000C328CD01CE019031E0208831003A031907
:10119000CA28CB2896289331A52388312000CC007B
:1011A0004C08CD00FD304D06031DD728D828DD287A
:1011B000DC01DC0AF401F5019628FE304D06031D22
:1011C000E228E328EC28DC017508B5007408B400B7
:1011D0008031A7208831DA285C080319F028F1282B
:1011E000FE284D08CC007408BD3E860087014C08DF
:1011F00081000130F4070030F53D962896288031B3
:101200006D2820006508A1006408A0000530A20038
:101210000030A3009231E9228931200020080F3EDE
:10122000B0007030213DB1003408B9003908B20077
:1012300093312B23893120006508A1006408A000A8
:101240000530A2000030A3009231E922893120004C
:101250002008103EB0007030213DB1003508B900C3
:101260003908B20093312B23893120006508A10091
:101270006408A0000530A2000030A3009231E922EA
:10128000893120002008113EB0007030213DB100AE
:101290003608B9003908B20093312B238931200078
:1012A0006508A1006408A0000530A2000030A3007A
:1012B0009231E922893120002008123EB0007030BE
:1012C000213DB1003708B9003908B20093312B2312
:1012D000893120006508A1006408A0000530A20043
:1012E0000030A3009231E922893120002008133E0A
:1012F000B0007030213DB1003808B9003908B200A3
:1013000093312B23893120005308803AB9006F08AC
:10131000803A3902031D8E296E0852020318912962
:101320009229C52901302000D2070030D33D023078
:10133000A0000030A1006F08A3006E08A200883151
:1013400004208931200053082106031DA9295208D1
:101350002006031DAC29AD29B929FD309331D323D3
:101360008931CC309331D3238931FE309331D3236B
:1013700089310E302000B0007030B1005208B90041
:101380003908B20093312B23893101302000E40762
:101390000030E53D6508803AB9006F08803A3902AF
:1013A000031DD4296E086402031CD729D829DB2920
:1013B0002000E401E50120006F085306031DE22927
:1013C0006E085206031DE529E629F5296508E300A4
:1013D0006408E2000D30B0007030B1006208B9005E
:1013E0003908B20093312B23893120005508803A07
:1013F000B9006F08803A3902031D002A6E085402B2
:101400000318032A042A092A01302000D4070030D7
:10141000D53D0C302000B0007030B1005408B90048
:101420003908B20093312B2389310B302000B000F2
:101430007030B1006408B9003908B20093312B2331
:101440008931080023000F0C890C01392000A2000B
:10145000230011081F3920002204031D302A312ADD
:10146000222A230011141118362A372A332A23007E
:101470000F0C890C01392000A200230011081F392C
:1014800020002204031D452A462A372A9A30963125
:10149000B4268A3123000F0C890C01392000A200E8
:1014A000230011081F3920002204031D582A592A3D
:1014B0004A2A01309631B4268A3123000F0C890C58
:1014C00001392000A200230011081F392000220446
:1014D000031D6B2A6C2A5D2A230091149118712A2E
:1014E000722A6E2A23000F0C890C01392000A200F9
:1014F000230011081F3920002204031D802A812A9D
:10150000722A9B309631B4268A3123000F0C890C45
:1015100001392000A200230011081F3920002204F5
:10152000031D932A942A852A9231CA228A312000E7
:10153000A2002208A30023000F0C890C013920000F
:10154000A200230011081F3920002204031DA92A2C
:10155000AA2A9B2A230091161116111AB02AB12A21
:10156000AD2A23000F0C890C01392000A2002300B2
:1015700011081F3920002204031DBF2AC02AB12AE6
:10158000230011151119C52AC62AC22A2000231FBB
:10159000CA2ACB2A222A23000F0C890C01392000E9
:1015A000A200230011081F3920002204031DD92A9C
:1015B000DA2ACB2A230011141118DF2AE02ADC2AA8
:1015C00023000F0C890C01392000A2002300110810
:1015D0001F3920002204031DEE2AEF2AE02A9A3048
:1015E0009631B4268A3123000F0C890C0139200072
:1015F000A200230011081F3920002204031D012B23
:10160000022BF32A00309631B4268A3123000F0CC6
:10161000890C01392000A200230011081F39200085
:101620002204031D142B152B062B23009114911853
:101630001A2B1B2B172B23000F0C890C01392000B0
:10164000A200230011081F3920002204031D292BAA
:101650002A2B1B2B9B309631B4268A3123000F0C8A
:10166000890C01392000A200230011081F39200035
:101670002204031D3C2B3D2B2E2B9231CA228A3192
:101680002000A2002208A30023000F0C890C0139BE
:101690002000A200230011081F3920002204031D8E
:1016A000522B532B442B230091161116111A592B30
:1016B0005A2B562B23000F0C890C01392000A20055
:1016C000230011081F3920002204031D682B692BF9
:1016D0005A2B2300111511196E2B6F2B6B2B200029
:1016E00023080800A92C023050065104031D792B51
:1016F0007A2B9A2BDA01DB01D001D10116130630C7
:10170000B0007030B1005A08B4003408B200933110
:101710002B238B3109302000B0007030B10096319E
:101720005A268B312000B4003408B20093312B23A9
:101730008B31D82C50035104031D9F2BA02BC42B9D
:101740009131C9218B312000D001D101DA01DB01B7
:1017500016130630B0007030B1005A08B4003408D7
:10176000B20093312B238B3109302000B000703050
:10177000B10096315A268B312000B4003408B200F3
:1017800093312B238B31D82C0130CE000030CF0089
:10179000903197208B31D82C0630CE000030CF000E
:1017A000C82B0330CE000030CF000A30A00000303C
:1017B000A1005908A3005808A200953157258B3184
:1017C00020002108AA002008A900923177228B313D
:1017D000D82C0430CE000030CF000A30A0000030FA
:1017E000A1005708A3005608A200883104208B31BD
:1017F00020002108AA002008A900923177228B310D
:10180000D82C0530CE000030CF000A30A0000030C8
:10181000A1005708A3005608A200953157258B3127
:1018200020002108AA002008A900923177228B31DC
:10183000D82C0630CE000030CF000730B00070301A
:10184000B1005808B4003408B20093312B238B3117
:1018500008302000B0007030B1005608B4003408E1
:10186000B20093312B238B3109302000B00070304F
:10187000B10096315A268B312000B4003408B200F2
:1018800093312B238B31903197208B31D82C08301A
:10189000CE000030CF00C82B0830CE000030CF0083
:1018A0000630B0007030B1005A08B4003408B200FD
:1018B00093312B238B3109302000B0007030B10000
:1018C00096315A268B312000B4003408B20093318F
:1018D0002B238B31C82B0B30CE000030CF00C82B10
:1018E0000A30CE000030CF000A30A0000030A10046
:1018F0006908A3006808A200953157258B312000A4
:101900002108AA002008A900923177228B31D82C17
:101910000B30CE000030CF000430B0007030B1008A
:101920006808B4003408B20093312B238B315B2C50
:10193000CE01CF01C82BCE01CF010530B0007030F1
:10194000B1006608B4003408B20093312B238B3108
:101950005B2C20004F08003A0319AF2CD82C4E08FE
:10196000003A0319732B013A0319CC2B033A0319DC
:10197000D12B013A0319E92B073A0319012C013A3B
:101980000319192C033A0319472C013A03194C2C5B
:101990000F3A03196B2C013A0319702C033A0319FF
:1019A000882C013A0319982C073A03199B2CD82C40
:1019B0000800023020004E064F040319E02CE12CF1
:1019C000432D03304E064F040319E72CE82C432D1A
:1019D00004304E064F040319EE2CEF2C432D053036
:1019E0004E064F040319F52CF62C432D0130F20757
:1019F0000030F33D3C3072067304031D002D012DB1
:101A0000432DF201F3010130D6070030D73D3C30C1
:101A100056065704031D0D2D0E2D282D0130D80715
:101A20000030D93DD601D701183058065904031D9E
:101A30001A2D1B2D1D2DD801D9010730B000703093
:101A4000B1005808C5004508B20093312B238C31F2
:101A500008302000B0007030B1005608C5004508BD
:101A6000B20093312B238C3109302000B00070304C
:101A7000B10096315A268C312000C5004508B200CD
:101A800093312B238C3120004E084F04031D492D28
:101A90004A2D602E50035104031D4F2D502D552DFE
:101AA000FF302100EE07FF30EF3D20006C086D0491
:101AB00003195B2D5C2D282E6D08A1006C08A00079
:101AC0007308A3007208A200953157258C312000BD
:101AD00020082104031D6D2D6E2D282E92314822E1
:101AE0008C3120002408C5004508CB004B08C500F8
:101AF000C60145082100D900200046082100DA006F
:101B00008D2D16129612A42D16169612A42D1612AD
:101B10009616A42D16169616A42D20004B08C50067
:101B2000C6014608003A0319962DA42D4508003A2F
:101B30000319812D013A0319842D033A0319872DC6
:101B4000013A03198A2DA42D913143218C312000B3
:101B5000C5004508CA004A08C500C601450821005D
:101B6000D700200046082100D80072082000C500D8
:101B70004508C9005808C5004508C7005608C500F3
:101B80004508C8006908803AC50080304502031D39
:101B9000CB2D4A086802031CCE2DCF2DDD2D200051
:101BA0006708803AC50080304502031DD92D4B08D7
:101BB00066020318DC2DDD2D132E20005008510481
:101BC000031DE32DE42D132E16136B082100EF00E7
:101BD00020006A082100EE0001302000D000003013
:101BE000D1000130DA000030DB009131D8218C3196
:101BF00006302000B0007030B1005A08C50045081A
:101C0000B20093312B238C3109302000B0007030AA
:101C1000B10096315A268C312000C5004508B2002B
:101C200093312B238C3147308600003087003A30C7
:101C3000840000308500403F803F413F813F423F6C
:101C4000823F433F833F443F843F9531AB258C31F6
:101C500021006E086F04031D2E2E2F2E5D2E2000F6
:101C600050035104031D352E362E5D2E9131C921AE
:101C70008C31200016170230D0000030D100013026
:101C8000DA000030DB000630B0007030B1005A08D6
:101C9000C5004508B20093312B238C310930200058
:101CA000B0007030B10096315A268C312000C5004A
:101CB0004508B20093312B238C3192310A228C31AA
:101CC000080000302000A6007030A7009131BA2132
:101CD0008E312000B4003408B60096315A268E3179
:101CE0002000B4003408B8000930A6007030A70006
:101CF0009131BA218E312000B4003408B700AA30E7
:101D00003606031D842E852E8B2E370838060319C0
:101D10008A2E8B2E3F2F0030B0007030B100AA30D9
:101D2000B4003408B20093312B238E3101302000EF
:101D3000B0007030B1006E08B4003408B2009331C6
:101D40002B238E3102302000B0007030B1006C08BF
:101D5000B4003408B20093312B238E3103302000BD
:101D6000B0007030B1006A08B4003408B20093319A
:101D70002B238E3104302000B0007030B100680891
:101D8000B4003408B20093312B238E31053020008B
:101D9000B0007030B1006608B4003408B20093316E
:101DA0002B238E3106302000B0007030B1005A086D
:101DB000B4003408B20093312B238E310730200059
:101DC000B0007030B1005808B4003408B20093314C
:101DD0002B238E3108302000B0007030B10056083F
:101DE000B4003408B20093312B238E310930200027
:101DF000B0007030B1003808B4003408B20093313C
:101E00002B238E310B302000B0007030B1006408FD
:101E1000B4003408B20093312B238E310A302000F5
:101E2000B0007030B1007008B4003408B2009331D3
:101E30002B238E310C302000B0007030B1005408DC
:101E4000B4003408B20093312B238E310D302000C2
:101E5000B0007030B1006208B4003408B2009331B1
:101E60002B238E310E302000B0007030B1005208AC
:101E7000B4003408B20093312B238E31FF2F013090
:101E8000A6007030A7009131BA218E312000B40035
:101E9000B5013408EE003508EF000230A6007030BE
:101EA000A7009131BA218E312000B400B501340869
:101EB000EC003508ED000330A6007030A70091312A
:101EC000BA218E312000B400B5013408EA0035088B
:101ED000EB000430A6007030A7009131BA218E319A
:101EE0002000B400B5013408E8003508E9000530E9
:101EF000A6007030A7009131BA218E312000B400C5
:101F0000B5013408E6003508E7000630A600703059
:101F1000A7009131BA218E312000B400B5013408F8
:101F2000DA003508DB000730A6007030A7009131D9
:101F3000BA218E312000B400B5013408D80035082C
:101F4000D9000830A6007030A7009131BA218E3137
:101F50002000B400B5013408D6003508D7000A3097
:101F6000A6007030A7009131BA218E312000B40054
:101F7000B5013408F0003508F1000B30A6007030D0
:101F8000A7009131BA218E312000B400B501340888
:101F9000E4003508E5000C30A6007030A700913150
:101FA000BA218E312000B400B5013408D4003508C0
:101FB000D5000D30A6007030A7009131BA218E31C6
:101FC0002000B400B5013408E2003508E3000E300B
:101FD000A6007030A7009131BA218E312000B400E4
:101FE000B5013408D2003508D3005A035B04031D41
:101FF000FA2FFB2FFF2F0230D0000030D100080055
:102044000800080008000800080008000130080023
:102054002300911408002300111508002300911592
:10206400080023000C0808002E000F1408002E009E
:102074000F1008002E008F10080021001313080011
:10208400923190229031080022001D121D16080082
:10209400230091121116080023009116111608004E
:1020A400F700770823008C00080021002010AA0103
:1020B4000E30080090312A20903101300800903110
:1020C4002A2090310230080090312A2090310130CA
:1020D400080090312D2090310030080090314A20C2
:1020E40090310530080090314E2090310A300800BC
:1020F40090314E209031093008002E000C1091319F
:1021040058219031080000302100CA000130C90074
:10211400080000302100CC000130CB00080016304C
:1021240030008C0007308D00080020001612961233
:10213400161396130800640080010131890B9E2850
:102144000034FE0012001E00FE0BA42800342100FF
:10215400A0119031302090310430080080302600E6
:102164008E008F018D018C0108002300110E890C53
:10217400890C0139F700770C080090312720903141
:1021840021002010AA010E3008002100A0152135DD
:10219400903152209031033008002F0096019701AE
:1021A400980199019A019B0108002100A0150314CC
:1021B400210D9031522090310530080020005D0837
:1021C400031DE528E7280130E82800300800200036
:1021D40021082200B100200020082200B0000800DD
:1021E400200021082200B500200020082200B400AD
:1021F4000800200021082200B3002000200822004B
:10220400B2000800200021082100E200200020087C
:102214002100E1000800200021082100E400200042
:1022240020082100E3000800200021082100E0002C
:10223400200020082100DF000800623031008D00FA
:102244008F019101023093009201080020002108BF
:102254002100EC00200020082100EB0008002000F1
:1022640021082100EA00200020082100E9000800DC
:10227400200021082100E600200020082100E500BC
:1022840008008A31222291312000A4002408A500EC
:10229400250808002300901A5029512957298F0135
:1022A40028309000910103308D00080021005F0860
:1022B400600403195E295F29642960088A005F08A5
:1022C4000A0091310800803027008E004C308D00C8
:1022D40080308C0024001F08F33904389F00080064
:1022E4002E000C100B1423302000A0001030A1008D
:1022F4009131162191312E00161408000130250069
:1023040090008F019101FF308D008C012E00901000
:10231400803025008E00080001340034013400347C
:1023240002340034193400340334003405340034E6
:102334001E34003421006B086C040319A229A3295C
:10234400A8296C088A006B080A0091313E004A12E1
:102354000800210069086A040319B129B229B729C0
:102364006A088A0069080A0091313E00D512080003
:102374002000270830009B002000260830009A0027
:102384001E171E140000000030001C080800553001
:102394003D008F00AA308F000F103E00960155308B
:1023A4003D008F00AA308F000F14080055303D0007
:1023B4008F00AA308F000F100E303E00960055306B
:1023C4003D008F00AA308F000F1408003E004A1E03
:1023D400EC29ED29F02991319C2191313E00D51E43
:1023E400F429F529F8299131AB2191310800240011
:1023F4000E1DFD29FE29052A0E1078088D00770888
:102404008C000E14092A78088D0077088C000800C7
:102414000230200050065104031D112A122A132AE7
:10242400161750085104031D182A192A1A2A1613BC
:10243400080022008E018F01900191019201930105
:102444008D0121009E019B01940195019601970144
:102454009A0199019801803093009D0108002E0093
:10246400101021006808F8006708F7009131F9217D
:1024740092312100650866040319412A422A472A39
:1024840066088A0065080A0092310800003092311B
:102494005F22923120002008A6002108A7000E30F8
:1024A400A736A60C890B522A2608A8002708A900DB
:1024B4002908A5002808A40008002000A300230878
:1024C40021009E0093171313131400006A2A64005A
:1024D400210013186E2A6F2A692A0D082000A10012
:1024E40021000C082000A0000800903197209231B0
:1024F4002000291C7E2A7F2A802A1616A91C832ADA
:10250400842A852A9616291D882A892A8A2A161732
:10251400A91D8D2A8E2A8F2A9617080022001908D1
:10252400F70020005F08203E86000130870077080E
:1025340081000130F7007708DF0708305F02031CD1
:10254400A42AA52AA62ADF010130F7007708DD07AF
:10255400080024008F0190010430910086308D0022
:10256400E8308C000D082100E80024000C0821004C
:10257400E7002E0010101A1426302000A00010309E
:10258400A10091313A219231053024008E000800D7
:102594000F30230010052000A00008302006031986
:1025A400D42AD52AE02A0F30230010052000A000E9
:1025B4000B302006031DDF2AE02AE22A23009115AE
:1025C40023000F1CE62AE72AE22A0C080800200050
:1025D400A401A501201CEF2AF02AF42A2208A4074A
:1025E4002308A53D0130A235A30D890BF52A01303E
:1025F400A136A00C890BFA2A20082104031D032B01
:10260400042BEC2A2508A1002408A000080090311E
:10261400CF20933197310E27933191311F2193317C
:1026240090319120933191316521933192311B2264
:1026340093319031B0209331913180219331913194
:10264400722193319231AB229331943173249331BB
:10265400080000308B1B01302000B300310830002B
:102664009B002000300830009A002000320830001F
:102674009C001E171E158B1355309F00AA309F0017
:102684009E149E18462B472B432B1E112000330CFF
:10269400031C8B1303188B170800903139209331D6
:1026A4002100A01D562B572B632B9031B72093315B
:1026B400031C5D2B5E2B632B0F30FB007B0821007A
:1026C400A90021002908FB00FC01FB35FC0D0030AA
:1026D4007B07840098307C3D8500013F8A00003FE1
:1026E4000A009331FD007D082100A90008002100A3
:1026F400A0110230F7007708AA00882B90316620D9
:102704009331A42B90316B209331A42B3908F7001B
:102714007708F7000F30A03E86008701413F8A000A
:10272400403F0A009331F800F9017908003A03198F
:102734009C2B842B7808023A0319802B013A031945
:10274400802B842B0800A72B640020005D0803194C
:10275400AC2BAD2BA62B5E08CF3E8600870101086B
:10276400A0002008F6005E08203E860001308700A5
:102774000108A0002008A1000130A0002008DE0705
:1027840008305E02031CC72BC82BC92BDE012E00A8
:10279400991201302000DD022E0099162000210834
:1027A40008002000A100D72B640021006D08031944
:1027B400DC2BDD2BD62B2E00191AE12BE22BE72B79
:1027C4002000210822009A00002C19122000210860
:1027D400A0006108283E860001308700200881009F
:1027E4000130A0002008E10708306102031CFB2B24
:1027F400FC2BFD2BE10101302100ED022E00191606
:10280400080021002015132C903166209431352CBA
:102814009031362094310330352C90316B20943133
:10282400352C3708F7007708F7000B30A03E8600F8
:102834008701413F8A00403F0A009431F800F901C2
:102844007908003A0319272C0F2C7808013A031948
:102854000F2C033A0319062C013A0319062C073AE4
:1028640003190A2C0F2C080020005F08CF3E8600B5
:102874008701810122001D1D402C412C4D2C20007C
:102884005F08CF3E860087018114220035088A0044
:1028940034080A00943122009D1C512C522C5E2CC9
:1028A40020005F08CF3E860087010115220033080F
:1028B4008A0032080A00943120005F08CF3E860067
:1028C400870101080319672C682C6F2C220031083A
:1028D4008A0030080A009431722C9231902294318B
:1028E40008002E00991236302000A0001430A100F8
:1028F4009131042194312E001912D9302000A00006
:102904000730A10091310D219431083022009F003D
:1029140090309D0024309E0019309B009C01223091
:102924002000A0001030A1009031F22094314630F4
:102934002000A0001030A1009031FB2094314230DF
:102944002000A0001030A1009031E9209431F6015C
:102954002000E101E0010830A20022082100ED007E
:102964002000DF01DE01DD012E0099160800903100
:1029740033209431F700210022088600870177086C
:1029840081000130F7007708A2070130A30200306C
:10299400A43B230824040319D02CD12CD62C903129
:1029A4004A2094310530022D2015E02C90317A20F4
:1029B4009431022D903175209431022D3708F7009F
:1029C4007708F7000B30A03E86008701413F8A005C
:1029D400403F0A009431F800F9017908003A0319DC
:1029E400F42CDC2C7808013A0319DC2C033A031983
:1029F400D82C013A0319D82C073A0319DC2CDC2C07
:102A040008009031B7209531031C092D0A2D3A2D69
:102A1400172D90315C209531562D903161209531E0
:102A2400562D90316B209531562D21003A08F8002F
:102A34007808F7001130A03E86008701413F8A00E4
:102A4400403F0A009531F900FA017A08003A031967
:102A54002C2D132D7908013A0319132D033A031968
:102A64000B2D013A03190F2D073A0319132D132DBA
:102A74002100A0110230A03E86008701403F84005F
:102A84008501810A000890315220953101302100DE
:102A9400A3020030A43B23082404031D522D532D0C
:102AA400552D0630562D033008002000A601A31F23
:102AB4005C2D5D2D642DA209A309A20A0319A30AA2
:102AC400A601A60AA11F672D682D6D2DA009A109D5
:102AD400A00A0319A10A200821040319722D732DD9
:102AE4009C2DA501A50A7F2D0130A035A10D890BD0
:102AF400772D0130A4002408A507A11F822D832D62
:102B0400762D21082302031D892D20082202031C8F
:102B14008C2D8D2D912D2008A2022108A33B01307C
:102B2400A136A00C890B922D0130A502031D9B2D0B
:102B34009C2D832D26080319A02DA12DA62DA209B5
:102B4400A309A20A0319A30A2308A1002208A000CA
:102B5400080071082000A9007008A80097317327A5
:102B640095312000283086000030870040308400F2
:102B7400003085000530BF0016001A00BF0BBE2DC3
:102B840043083D06031DC72DC82DCE2D44083E061F
:102B94000319CD2DCE2DFF2D3A308600003087004D
:102BA4003430840000308500403F803F413F813F06
:102BB400423F823F433F833F443F843F8931012169
:102BC40095310130F0070030F13D20006F087106A7
:102BD400031DEE2D6E087006031DF12DF22DF42D4C
:102BE400F001F1010A30B0007030B1007008BF008C
:102BF4003F08B20093312B23953108003D2E03107A
:102C0400961F03140318072E0A2E200096170C2E65
:102C140020009613542E0310961F03140318132E2A
:102C2400162E20009617182E20009613542E0310EB
:102C3400161F031403181F2E222E20001617242EED
:102C440020001613542E0310961E031403182B2E63
:102C54002E2E20009616302E20009612542E03108D
:102C6400161E03140318372E3A2E200016163C2E77
:102C740020001612542E20004F08003A0319432E48
:102C8400542E4E08003A0319012E013A03190D2E51
:102C9400073A0319192E0E3A0319252E033A03197C
:102CA400312E542E01302100C7000030C800080026
:102CB40008302000A6007030A7009131BA21963167
:102CC4002000A8000730A6007030A7009131BA2177
:102CD40096312000A9000630A6007030A70091317B
:102CE400BA2196312000AA000530A6007030A70052
:102CF4009131BA2196312000AB000430A600703027
:102D0400A7009131BA2196312000AC000330A6000F
:102D14007030A7009131BA2196312000AD00023005
:102D2400A6007030A7009131BA2196312000AE0080
:102D34000130A6007030A7009131BA2196312000ED
:102D4400AF000030A6007030A7009131BA2196314F
:102D540020002F072E072D072C072B072A072907EA
:102D6400280708002000A100210823008C00901FE0
:102D7400BC2EBD2EBE2E0D2F0F3010052000A0003E
:102D8400083020060319C72EC82EE12E0F30230069
:102D940010052000A0000B3020060319D22ED32EDC
:102DA400E12E230010162E000F1CD92EDA2ED52E5C
:102DB40023000F19DE2EDF2E0D2F0F080D2F0F30DD
:102DC400230010052000A000083020060319EB2E74
:102DD400EC2EF72E0F30230010052000A0000B303E
:102DE4002006031DF62EF72E0D2F23000F18FB2EA1
:102DF400FC2EF72E23000F0C890C01392000A000B3
:102E0400230011081F3920002004031D0A2F0B2F53
:102E1400FC2E23001108080020009A019901960154
:102E240097019801073095000F309100FF30920010
:102E3400BF309300FF309400FF303E00D90047308C
:102E4400CE00EF30C3000730E4000F30B800DA01E1
:102E5400E5011030C400B9012030CF00E601BA0109
:102E6400C501D001DB01FF30BB00FF30C600FF30DD
:102E7400D100FF30DC000730E700FF30BC00FF303A
:102E8400C700FF30D200FF30DD000730E8004A12EF
:102E940049124816D512D412D31624302000A000AB
:102EA4001030A10091312821973125302000A00055
:102EB4001030A1009131312197312E0016160C30BB
:102EC4003D0090001730CB001330C50014303E0095
:102ED400A3001530A4001030A60014303D00C60035
:102EE400080020002908A1002808A0000530A2003D
:102EF4000030A3009231E9229731200020080F3ED0
:102F0400A6007030213DA7009131BA2197312000ED
:102F1400AD002D08AE002908A1002808A000053046
:102F2400A2000030A3009231E9229731200020084A
:102F3400103EA6007030213DA7009131BA2197318F
:102F44002000AD002D08AF002908A1002808A0002A
:102F54000530A2000030A3009231E922973120000D
:102F64002008113EA6007030213DA7009131BA21FE
:102F740097312000AD002D08B0002908A1002808D1
:102F8400A0000530A2000030A3009231E92297315D
:102F940020002008123EA6007030213DA700913188
:102FA400BA2197312000AD002D08B1002908A100F5
:102FB4002808A0000530A2000030A3009231E922C5
:102FC400973120002008133EA6007030213DA70051
:102FD4009131BA2197312000AD002D08B2002E3076
:102FE40086000030870028308400003085000530DA
:102FF400AD0016001A00AD0BFB2F08005734103437
:10300400D7341034C734103403341534B934143479
:10301400A9341034033414345C341034613410345F
:10302400663410346B341034703410347534103406
:0C3034007A341034BF3410347934133473
:020000040001F9
:0A000E00EC3FFF37BF07FF3FFF3F45
:00000001FF
